:020000041000EA
:1000000000B5324B212058609868022188439860DF
:10001000D860186158612E4B002199600221596106
:100020000121F02299502B49196001219960352056
:1000300000F044F80222904214D00621196600F024
:1000400034F8196E01211966002018661A6600F04E
:100050002CF8196E196E196E052000F02FF8012189
:100060000842F9D1002199601B49196000215960AB
:100070001A491B48016001219960EB211966A021F2
:10008000196600F012F800219960164914480160C1
:100090000121996001BC002800D000471248134993
:1000A000086003C880F30888084703B5996A0420EC
:1000B0000142FBD001200142F8D103BD02B5186610
:1000C0001866FFF7F2FF186E186E02BD00000240BE
:1000D000000000180000070000035F00212200005C
:1000E000F4000018222000A00001001008ED00E03C
:1000F00000000000000000000000000074B24E7A12
:1001000000200420F7010010CB010010CD010010E9
:10011000C9010010C9010010C9010010C901001077
:10012000C9010010C9010010C9010010CF01001061
:10013000C9010010C9010010D1010010D301001045
:10014000C1010010C1010010C1010010C101001067
:10015000C1010010C1010010C1010010C101001057
:10016000C1010010C1010010C1010010C101001047
:10017000C1010010C1010010C1010010C101001037
:10018000C1010010C1010010C1010010C101001027
:10019000C1010010C1010010C1010010C101001017
:1001A000C1010010C1010010C1010010C101001007
:1001B000C1010010C1010010C1010010C1010010F7
:1001C000EFF30580103800BE00BE00BE00BE00BECA
:1001D00000BE00BEF2EB88713CD5051064D5051059
:1001E0003802001090A31AE71E481F49086006C88D
:1001F00081F3088810471D480068002801D019487D
:10020000F3E70DA40ECC002902D000F012F8F9E7B4
:100210001749184A002000E001C19142FCD116495B
:100220008847164988471649884700BEFDE701C937
:1002300001C29A42FBD3704764D50510C00000206C
:1002400028230020CCF70510000004200000042023
:10025000CCF705100010042000100420000000005E
:10026000704700000000000008ED00E0000000D032
:1002700028230020804200209D38001045040010F3
:100280005D380010F8B5C04606480749091A8B10BA
:10029000C90FC91810B5491003D0044B002B00D06A
:1002A000984710BD282300202823002000000000CC
:1002B000054B10B5002B03D00449054800E000BFF2
:1002C000FFF7E2FF10BDC04600000000603F0020C5
:1002D0005CA00410406810387047000070B584B00E
:1002E0000400019141680368CB1A1B110F48C01A22
:1002F000019DA84210D303939D4210D803AA106811
:10030000C0182368C91A091188420AD380231B0523
:10031000984208D204B070BD100018F0F7FC01AA92
:10032000EDE70248F6E70148F4E7C046FFFFFF07A4
:1003300010B50800110102F033F910BD10B500230B
:100340008022120591425B41002B03D1080102F08B
:1003500017F910BD80235B05994201D318F09EFC6C
:1003600018F08CFCF0B5DE4657464E464546E0B5E3
:1003700083B005000F0016009A46264A0121FFF7B8
:10038000ADFF80462B6899466B6801933C004B4655
:10039000FF1A00280ED0002201002800FFF7CEFF30
:1003A0008346380058445246310000F010F95F4649
:1003B0004E4609E000239B46F3E710223100380047
:1003C00002F0D8F810361037B442F6D1103706E0F4
:1003D00010222100380002F0CDF810341037019BB4
:1003E000A342F5D1AA684B46D21A1211002B03D0B2
:1003F00049462800FFF79CFF5B462B606F60434631
:100400001B015B44AB6003B0F0BCBB46B246A946DF
:10041000A046F0BD60A0041010B504004068A368B9
:10042000984208D000F0D3F863681033636020006E
:10043000FFF750FF10BD13000A0001002000FFF776
:1004400091FFF4E730B593B000240F941094119409
:1004500000940023002216210DA800F067F80094F4
:100460000023002215210BA800F060F8009400235F
:100470000022142109A800F059F801340094012346
:100480000122072107A800F051F80094012301225E
:10049000082105A800F04AF800940123012209214F
:1004A00003A800F043F80DAA07A90FA8FFF7B4FFAF
:1004B0000BAA05A90FA8FFF7AFFF09AA03A90FA868
:1004C000FFF7AAFF1749184823F030FB23F0B0F9D3
:1004D00024E0200000F088F802E00A2000F03CFF51
:1004E000200000F087F80028F7D1200000F087F8FE
:1004F00008E020001030040085420CD000F07AF8AB
:100500000028E6D1200000F08EF80028F1D020006D
:1005100000F064F8EDE70A2000F01EFF0F98109D30
:10052000E9E7C0467CA004102C38002070B5040018
:100530000D0004A90E7805600271437186712800D0
:1005400000F0EEF82379002B14D0002E0DD10123FA
:10055000AB40D0221206936200220121280000F055
:100560009FF803F0F3FA200070BD0121280000F08D
:10057000B3F8ECE7002E05D10123AB40D0221206E0
:100580005362EEE70121280000F0B8F8F4E70268B2
:10059000D0231B065B68012090401840431E984101
:1005A000C0B2704710B5FFF7F2FF10BD026801231B
:1005B0009340002903D0D022120653617047D02205
:1005C00012069361FAE710B5FFF7F0FF10BD016066
:1005D0004260002200238260C360704710B540680B
:1005E0000021FFF7F0FF10BD10B540680121FFF7B3
:1005F000EAFF10BD10B50068FFF7D4FF10BD10B5BD
:10060000040000F0A5FF002905D0FA229200002383
:1006100001F03EFB03E0FA21890001F0FBFAA06043
:100620000023E36010BD10B5040000F091FF002925
:1006300005D0FA229200002301F02AFB03E0FA2100
:10064000890001F0E7FA02000023A068E168121AAD
:100650008B411100002B06D101D0002010BDFA23E0
:100660009B009942F9D30120F8E7000010B5830000
:10067000084A9A1814684022544080322240064C9E
:10068000A44663441A60C000044B9C466044416029
:1006900010BDC04604C0014004D0014000400140EC
:1006A00080000C4B9C46604400290ED00823002A91
:1006B0000DD004221343026853400C2213408022C1
:1006C000520194466044036070470023EFE7002224
:1006D000F0E7C04604C00140C000064BC31809043F
:1006E0001B685940C0239B021940034B9C46604441
:1006F000016070470440014004500140C000064BB7
:10070000C31809021B685940C0239B001940034BC2
:100710009C46604401607047044001400450014021
:1007200010B501238340D022120693629361052104
:10073000FFF79CFF10BD00000FB400B583B0084860
:1007400003F009FA049B002B07D005A901911800BA
:1007500003F010FA034803F0FEF9012003F028F833
:1007600084A004105CAA0410EFF3108072B6034B4F
:100770001B68002BFBD0BFF35F8F70472C0100D0AC
:10078000BFF35F8F024B00221A6080F3108870471E
:100790002C0100D0F8B506000C001500FFF7E4FFAF
:1007A000E308F718F15C07222240012393400B4233
:1007B00005D1DBB20B433B70FFF7E2FFF8BD210030
:1007C0002800FFF7B9FF0000054A1078431CDBB290
:1007D0001370172B02D9130010221A707047C046ED
:1007E000F8110020002307E0054A9A189200BFF391
:1007F0005F8F0021116001331F2BF5D97047C04670
:1008000040000034074B9B68103080001950BFF344
:100810005F8FBFF35F8F044B0021196082F3108854
:100820007047C04600ED00E0240100D0004870474A
:1008300000E400E010B5FFF7F9FF002302E0034AEF
:1008400004C00133072BFAD910BDC04680808080D8
:1008500010B50388DA0A1C2A05D15B055B15023343
:100860005B00C01810BD034B034A8E2103484900AA
:1008700002F0F8FF94A004105CC00410ACA00410B7
:1008800010B5091A0B1F0A4A88180A4A904208D85C
:10089000C90706D45B105B055B0D0748184380B29F
:1008A00010BD064B064A87210648490002F0DAFFD0
:1008B000FC070000FE0F000000E0FFFFE0A00410B6
:1008C00050C00410ACA0041010B5091A04394A082D
:1008D000090B08D14905490D064B0B430380064B14
:1008E0001343438010BD054B054A8B210548490041
:1008F00002F0B8FF00F0FFFF00F8FFFF10A10410A6
:100900002CC00410ACA0041001238340034A1068DB
:100910001840431E9841C0B27047C04600E100E055
:10092000002A05D0044BC02252009950196070472C
:10093000014A8023D150FAE700E100E010B50A0037
:100940001F230340012199404009FFF7E9FF10BD33
:10095000024B9B6810308000C058704700ED00E0EB
:1009600070B504000D00EFF3108672B60C4B1B68D7
:10097000002BFBD0BFF35F8F2000FFF7E9FF094B8F
:10098000984201D0A84205D1320029002000FFF78B
:1009900039FF70BD044B054A0548ED2102F062FFA6
:1009A000240100D0C101001020A104106CC004106B
:1009B000ACA00410F0B5CE46474680B583B0060023
:1009C0000D00EFF3108872B64F4B1B68002BFBD065
:1009D000BFF35F8F4D4B9A6834001034A300D75893
:1009E0004B4B9F4207D0AF4200D18AE00197494B61
:1009F000FB1A2F2B09D9424639003000FFF702FFBE
:100A000003B0C0BCB946B046F0BD3000FFF77CFF74
:100A1000814600213000FFF791FFBFF35F8FEFF3B6
:100A20000581002901D08C4211D10123019C9C43F6
:100A30000020A3689D4211D00622A256002A0CDB9A
:100A400053009B189B00334A2000D418F1E7324B27
:100A5000324A3348334902F005FF20009D4249D114
:100A600006256557002D2BDB2A4B6A005219920090
:100A70009B189A68A260DA79E2719B795BB2A371E4
:100A8000002B0FDA2848A080224B6A0052199200EE
:100A90009B18264A11789971157049463000FFF766
:100AA0004DFFA8E76800401980001A4BC0180430B9
:100AB000FFF7CEFE0100231D1800FFF7E1FEE2E77D
:100AC000002912D100280ED0FF238371184B838098
:100AD00016490B78A3710F4A164BA41A644163435D
:100AE0001B0D0B70D9E70A4FF2E71349201DFFF7E2
:100AF000EBFED2E7114B094A91210948890002F027
:100B0000B1FE034F77E7C046240100D000ED00E0BE
:100B1000C1010010FC11002058A104103CC00410B9
:100B2000ACA004100202000001BD00007D420020C4
:100B300001BDFFFFAAAA0000361200208CA10410FC
:100B4000F8B5012202432C4BD31A2F2B28D8EFF3F0
:100B50000583002B2AD0EFF3108472B62749096869
:100B60000029FBD0BFF35F8F234D25490600761B7C
:100B700076417143090D4DB2224989689B00C958DD
:100B8000914219D00021032930D81B4B4A0052183A
:100B900092009B189B795BB2AB421DD00131F2E70A
:100BA000194B1A4A1A481B4902F05CFE1A4B174AA5
:100BB00017481A4902F056FE124A92681849D15055
:100BC000184B1A7882711D70BFF35F8F0B4B002298
:100BD0001A6084F31088F8BD074B4A005618B60017
:100BE0009E19FF27B771104AB280E9E70F4B074AF9
:100BF00007480F4902F036FEFC110020240100D006
:100C0000AAAA000000ED00E094A1041010C0041096
:100C1000ACA004107F020000BCA1041082020000FE
:100C2000C10100107D42002001BDFFFFC8A10410DA
:100C300093020000024B9C466144890001607047AA
:100C40004000003410B50400FFF7BEFD0100200095
:100C5000FFF7F0FFFF232371BFF35F8F10BD10B5C7
:100C60000400FFF7B1FD01002000FFF7E3FFFF23C1
:100C7000237100236371BFF35F8F10BD10B50D4C5E
:100C800009E00D4B0D4A0E481A2102F0EBFD200041
:100C9000FFF7D8FF08340B4B9C4209D22368002B86
:100CA000F5D0012BEDD12000FFF7D9FF0834F2E792
:100CB00010BDC04620230020D0A10410ACC00410F9
:100CC000F0A104102823002030B5846A151B0B1DE9
:100CD0009B001B581B1B9D4204D3046A01238B40BD
:100CE000234202D1043189000A5030BD0004084378
:100CF000704700000A4B1968EFF3108372B60A6858
:100D0000002AFCD0BFF35F8F054A1268BFF35F8FE4
:100D10000021116083F3108840BF0020002170473C
:100D200070420020F0B5DE4657464E464546E0B5D7
:100D300083B0EFF3058303221A4011000192AC4BFC
:100D40009200D35898461B788B4207D10123019A11
:100D500093400093A74B009A1A6019E1A64BA74A4B
:100D6000A748922102F07EFD43465A694B465B003C
:100D70004B44DB0093469B445B469E68DF68A1487A
:100D800000F0B4FB801BB941002900DA0AE1002F12
:100D900060DB5B461C699C4B9C4245D04346082067
:100DA000185E5B46598889B2FFF7A0FF5B46596918
:100DB000A04704000D0023002B434BD0002D3DDA4B
:100DC00030003900001BA9415B469860D9600024BF
:100DD0001C5F002C00DAE5E043465A699246630046
:100DE0001B19DB0053449A68DB6805000E00AD1A3E
:100DF0009E41002E00DAD5E043461C814746083765
:100E0000BC46634600255D5F002D1DDB6C00641948
:100E1000E4005444A268E36806000F00B61A9F413C
:100E2000002F11DBA446ECE75B465C6923692000D8
:100E3000984700280ED065682468BCE7714800F028
:100E400055FB00196941BFE75B461D804B46624672
:100E50001380A7E05B4600229B5E42461381126925
:100E6000EFF3108372B611680029FCD0BFF35F8FD7
:100E700042460221525E59460A8042464946518006
:100E80001269BFF35F8F0021116083F3108889E03E
:100E900043461969EFF3108372B60A68002AFCD042
:100EA000BFF35F8F4246928812B2914601225242AE
:100EB00041468A800A69BFF35F8F0021116083F386
:100EC00010881AE09B465B4600229A5E002A0BDBE4
:100ED00053009B18DB0053449868D96826002F0004
:100EE000361A8F41002FEDDA4B4659460B80634688
:100EF00000215B5E994663461A804B46002B57DB08
:100F000043465A6992464B465B004B44DB009C4685
:100F1000D44463469C68DD6846460836B346D2E74B
:100F20000023424693714146083143460820185E2B
:100F300011E001225242D317A260E3604346082227
:100F40009B5E834206D00D80434608229B5E238031
:100F5000434618812800431C2ED043465A6943005B
:100F60001B18DB00D418D55E63881BB2002BE0DBB6
:100F70002100EFE722002B0001992248FFF7A4FE91
:100F8000204800F0B3FA241A8D41002D28DC25D02A
:100F90001C4B009A5A63434608229B5E9946002BDD
:100FA00000DBE1E643469B881BB2002B00DB6FE7CA
:100FB00043469B79002BB3D1434608229A5E002A10
:100FC0000EDB4346596953009B18DB00CB189C6825
:100FD000DD68631CCED16B1CD2D0CBE7002CD7D000
:100FE00040BF03B0F0BCBB46B246A946A046F0BD28
:100FF000783F00203C70054074A20410D8C0041053
:10100000A0A2041000400540250D001070B504009A
:101010000D0011000126AE4006622800FFF7A0FC7B
:1010200001212800FFF78AFC024B9C46644426609D
:1010300070BDC04638200000F8B5CE46474680B5A2
:101040000600894690461F00C160FFF7BDFB154BA7
:101050009C4660448000306143463370BBB273816C
:10106000D022120612787270012252423281B2806E
:101070009B187380002406E0621E736965002D19B9
:10108000ED005A530134BC42F6D3074B424692005E
:10109000D650064A41464846FFF7B8FFC0BCB9469D
:1010A000B046F8BD40000034783F0020250D001008
:1010B00010B5064B1B69002B01D0044810BD044B32
:1010C000044A0548652102F0CDFBC04644120020C9
:1010D000D0A20410C0C00410A0A20410F8B50400EF
:1010E0000569EFF3108072B629680029FCD0BFF3C0
:1010F0005F8F0221665E656971008919C9006D18EC
:10110000002E02DB0027E95F61802169BFF35F8F5A
:1011100000270F6080F31088002E2CDB06992961D0
:1011200007996961AA60EB606B8801335B04590C15
:10113000002B00D1012169803000FFF7D7FD216924
:10114000EFF3108372B60A68002AFCD0BFF35F8FFA
:10115000A2882A80A6802269BFF35F8F00211160D8
:1011600083F31088E368217801228A4003498C4682
:1011700063441A60F8BD01204042FBE73C200000B8
:1011800070B582B0060014001D0008AB1B78002B60
:1011900007D100F0DDF922002B00121A8B41002B41
:1011A0000ADB079B0193069B009322002B00300073
:1011B000FFF794FF02B070BD0020FBE7F0B5C64614
:1011C00000B584B00500884616001F000AAB1C78E5
:1011D000FFF76EFF0294019700962A004346FFF73F
:1011E000CFFF04B080BCB846F0BD000030B50300AE
:1011F00008145A8990422EDA5C6942001218D20013
:10120000A2181D69EFF3108472B628680028FCD07C
:10121000BFF35F8F508880B20904090C884212D056
:1012200000201A69BFF35F8F0021116084F31088DA
:10123000002811D0DA681B7801319940074B9C4691
:101240006244116008E00649014389B251800122DD
:101250009A710120E5E7002030BDC0463C20000027
:101260000080FFFF10B50400FFF722FF2100FFF709
:10127000BDFF10BDF0B583B006000F00EFF305838E
:10128000002B1AD106246442E517A4197D418D4232
:1012900002D803D1844201D90024002500F058F976
:1012A00022002B00121A8B41002B0BDC08D03000DF
:1012B000390000F05FF903B0F0BD1A48FFF73CFABF
:1012C000002AF4D0184A0023009320002900FFF7D9
:1012D00075FF002818DAEAE7002300E00023002B5E
:1012E000E5D1124B1968EFF3108372B60A68002A31
:1012F000FCD0BFF35F8F0D4A1268BFF35F8F0021F0
:10130000116083F3108820BF094B5B6A9D42E5D8CA
:101310000749896AA14203D29D42DDD00123DEE75D
:101320000123DCE7F4A20410F50C00107042002049
:101330000040054070B504000D0000F009F90019E7
:101340006941002902DBFFF795FF70BD0120404293
:101350000049F8E7FFFFFF7F10B5FA229200002353
:10136000002101F029F8FFF7E5FF10BDF0B5CE46EA
:10137000474680B583B005000C00EFF30583002BD2
:1013800015D0434B5B6A8B4209D3414A926A824231
:101390000BD28B4201D0012002E0002000E00020AF
:1013A00003B0C0BCB946B046F0BD0120F8E7FFF776
:1013B0007FFEC3689946037898462E00270048466A
:1013C00000F094F802000B00B61A9F414346043324
:1013D0009B004A469B581B1A0022BA420FDC0CD0D5
:1013E00020BF2B4B5B6A9C4220D8294A926AAA42B2
:1013F0001ED29C4218D00120D2E7B342F0D9254A30
:101400000023009328002100FFF7D8FE002811DDFB
:101410001F4B5B6A9C4221D81D4A926AAA422FD276
:101420009C4219D001231AE00020B9E70020B7E759
:101430000120B5E7164B5B6A9C4209D8144A926AB0
:10144000AA4207D29C4201D00120A9E70020A7E7C9
:101450000020A5E70120A3E7002300E00023002BE4
:1014600000D120BFFFF7FEFE094B5B6A9C420BD800
:10147000074A926AAA4209D29C4203D001208FE710
:101480000123ECE700208BE7002089E7012087E7B4
:1014900000400540F50C0010004870470040054032
:1014A00010B50B4B1B69002B04D00A480A21FFF72B
:1014B000C1FB10BDFFF7F0FF0400032100F00CF8A2
:1014C0000348102303222100FFF7B6FDEDE7C046D5
:1014D000441200207042002010B5024A0248FFF773
:1014E00059F910BD44A30410403E00200200436A95
:1014F000906A1900536A9942FAD17047416A00E034
:10150000416A9942FCD300E0416A994202D1816A62
:101510009142F9D37047F0B5C64600B58046140035
:101520001D00FFF7E3FF06000F0022002B009219B9
:101530007B41994202D804D1904202D90122524201
:10154000D3174046FFF7DAFF80BCB846F0BD000075
:1015500010B50248FFF7CAFF10BDC0460040054065
:1015600010B502000B000248FFF7D5FF10BDC046C2
:101570000040054010B502000B000248FFF7BEFF17
:1015800010BDC04600400540074B98420AD01623C4
:1015900001229A40054B1A60054B1B6811009943C4
:1015A000FAD170471723F3E70080034000F00040B2
:1015B00008C0004070B5046BE30701D4200070BD83
:1015C0000B4BC3180B4A1A60456A836AAD01ED18CC
:1015D000AD02062000F016F9074900F01BFB0100E0
:1015E000280000F017FB0021FFF7BAFFE6E7C0462E
:1015F00030300000010300004E0E000070B5040002
:101600000E001500FFF7D6FFE36A5E403540024B3F
:10161000E3181D60206370BD2C10000070B505003C
:101620000C00062000F0EEF8C000210000F0F2FAF5
:101630000130C60907D00E4B9E4215D84008340031
:101640003F26064000E001246C62AE6200220021C9
:101650002800FFF7D3FF062000F0D4F88000A10196
:10166000891900F0D7FA70BD0026024CECE7C0469D
:10167000FEFF0000FFFF0000002909D00A22064BF0
:101680009C46604443425841044B4000C25270475C
:1016900080225200F3E7C0460080FCBF7442002065
:1016A00070B504000D00062000F0ACF800281ED034
:1016B000104B9C421CD01622012393400E4A13600B
:1016C0002000FFF761FF00212000FFF7D5FF290070
:1016D0002000FFF7A3FFE26A70235A400E33134045
:1016E000064AA2181360064B23630323A36470BD4C
:1016F0001722E1E70080034000E000402C100000CA
:1017000001030000F8B5D646474680B506000D0037
:101710001700984644002418A400294B9C466444B2
:101720006368089A934200D26260331FDBB29A4624
:10173000012B2ED980221201C0239B01E3181A60CD
:10174000204BB200D158002907D0586900F062FA46
:10175000013043001B18033BFDD27F0123685F402B
:10176000E0233B4080225201A21813605346012B14
:101770001AD980239B01E318802212011A60089B6A
:101780006360104BB6004246F250C0BCBA46B04649
:10179000F8BD012DCED10322C0239B01E3181A60AE
:1017A000A368DB07FCD5D8E72168694003230B4019
:1017B0001360A3680122AA401A42FAD0D9E7C046B2
:1017C00000800040443E0020F0B583B005000E00CC
:1017D00017001800089900F01DFA0300089A140277
:1017E00000943A0031002800FFF78CFF03B0F0BDF1
:1017F00010B582B0802464000094FFF783FF02B02C
:1018000010BD0000014B8000C0587047443E0020CE
:10181000F0B5C64600B504000E0017001D0037489D
:1018200000F0F8F98046364BFA18364B9A4239D810
:101830000100380000F0EEF90200103A98235B0036
:101840009A4235D86B1E062B38D8069B013B062BD7
:1018500034D83F09474537D32D04069B1B031D434E
:101860002368002B36DB284B9C4244D00C220123FA
:101870009340264A1360264A1360264A12681900CC
:1018800091430A1EF9D12660A060234BE318213250
:101890001A602268002AFCDAE56008221A6080BC1F
:1018A000B846F0BD1D4B1E4A1E48112101F0DAFF5B
:1018B0001D4B1B4A1B48192101F0D4FF1B4B184A32
:1018C00018481C2101F0CEFF194B154A1548232159
:1018D00001F0C8FF22683F231340B342C3D1A3687D
:1018E0001B051B0D8342BED1E368EE22D2021340DA
:1018F000AB42B8D1D3E70D22B9E7C046001BB70011
:1019000080E84BD380F8A93200C0024000E00040DC
:1019100000F0004008C000400430000068A304103C
:10192000F8C00410B8A30410ECA3041008A4041019
:1019300054A4041080239B000B43014AD3627047D8
:101940000080054010B5010018231B881422108860
:10195000984710BD10B5010018231B881622108867
:10196000984710BDF0B5C64600B507000E0000252B
:101970000123984600E00135B5420AD2AC003C197B
:101980002068FFF7DFFF20600028F4D1002398468D
:10199000F1E7404680BCB846F0BD0000074BAA22E4
:1019A00012011A608D225200DA60054B054A1A6056
:1019B000024B5B68002BFBDA7047C04600400240D8
:1019C0000060024000B0FA0010B5040001E008CC4D
:1019D0009847024B9C42FAD310BDC04634A0041075
:1019E0007047000010B50248FFF7EEFF10BDC0467B
:1019F000F89F0410054B064A1A60064B064A1A6007
:101A0000064B1A68044B9343FAD1704700E000403C
:101A1000BFCDFBFE00F00040FE7F3C0008C0004050
:101A2000044BDB6C002B03D1034B8022D2021A60E3
:101A30007047C046000011504C201150044B054A1D
:101A40001A60054B1B68DB43DB01FAD17047C046C7
:101A500000F00040FFFFFF0108C00040034B4022A0
:101A60009A675A671A67DA667047C04600F0014005
:101A700010B5FEF7B7FE10BD10B50C4A0C4BD21ACC
:101A800092101400302A00D93022920009480849E7
:101A900000F070FD04E0084A064BA100CA50013472
:101AA0002F2CF8D9034B054A936010BDC0010010DC
:101AB0000001001000000020C101001000ED00E056
:101AC00070B50420FFF79EFE064900F0A3F805005C
:101AD0000024002C00DD70BDE0B22900FFF72AFFD2
:101AE0000134F6E740420F0030B583B0274B0022A7
:101AF0009A67FFF753FF264B01221A60234B5B6C5A
:101B0000012BFBD1234B03221A60204B9B6B012B33
:101B1000FBD10133009304331F4A01211F48FFF713
:101B200077FE052300931E4A01211E48FFF770FE31
:101B30001D4B002202210420FFF75AFE1B4D2B00F3
:101B4000002201210520FFF753FE194C230000223B
:101B500000210720FFF74CFE23000022002108206F
:101B6000FFF746FE8023DB000093230000220021C4
:101B70000920FFF729FE2B00002200210620FFF795
:101B800037FEFFF79DFF03B030BDC0460080004028
:101B90003CB0004030B00040002F68590080024047
:101BA000008C864700C00240001BB70040597307F5
:101BB000006CDC0201480421014B18476012002030
:101BC00065190010124A936F9B0815D29066D16672
:101BD000002905D0FFE7FFE7FFE7516F106F70475F
:101BE00004B580210906C2175140002800D0C8431F
:101BF00048F0BAF9002104BDF0B5146E556E576F68
:101C0000166FFFF7E3FF1466556657671667F0BD5A
:101C1000000000D0114A936F9B0813D210665166E2
:101C2000002905D0FFE7FFE7FFE7516F106F70470E
:101C300004B5002801D00020C04348F095F90021E8
:101C400004BDC046F0B5146E556E576F166FFFF7A2
:101C5000E5FF1466556657671667F0BD000000D0B3
:101C600094464A4A926F9208624601D228E0C046E2
:101C7000F0B5464E346E756E776F366F00F020F813
:101C80009446424A14665566576716676246F0BD29
:101C900094463E4A926F9208624601D254E0C04692
:101CA000F0B53A4E346E756E776F366F00F04CF8C3
:101CB0009446364A14665566576716676246F0BD05
:101CC000002B24DB11D000293EDA00B5C943404285
:101CD00000D1013100F038F8C943404200D1013150
:101CE000DB43524200D1013300BD002AEBD1002872
:101CF00001D1002905D00020C90FC90701D1C04377
:101D0000410800B548F008F90022002300BD00B5E5
:101D100000290ADBDB43524200D1013300F014F802
:101D2000C943404200D1013100BDC943404200D106
:101D30000131DB43524200D1013300F005F8DB43AF
:101D4000524200D1013300BD002923D1002B18D10C
:101D5000002A0CD0BC460D4F38667A66002100235D
:101D6000FFE7FFE7FFE77A6F386F674670470028A5
:101D700001D00748010000B548F0CEF8002200234A
:101D800000BD02000B00002000217047000000D0C1
:101D9000FFFFFFFF002B00D0BFE0130C28D1002A6B
:101DA000E7D080B4114F39667A66FFE7FFE730B4B9
:101DB000040C7B6F396F1B0423433B667A66FFE795
:101DC000FFE7FFE7C04684B27B6F3D6F1B042343F0
:101DD0003B667A66FFE7FFE7C04600232C042D0C24
:101DE0007A6F386F00196941B0BC7047000000D0AD
:101DF000F0B594460025140E01D112020835140FD7
:101E000001D112010435940F01D192000235D40F93
:101E100001D152000135D40B0134254F7C66254C8D
:101E20003C660E0C93B2FFE7FFE7FFE73C6F6643AB
:101E3000360C7703BE467343DF0B5B04C01AB9410F
:101E4000130C7343DB18C91ACE086643360CB6442C
:101E500093B273431F0F1B01C01AB941130C734394
:101E60001F0B1B05C01AB941860D8F023E43664306
:101E7000360C092D24DB520A7243801A7703460A76
:101E80006643360C16235B1BDE40DF40BF196446F9
:101E90006643821B7046043506330100D940A840D2
:101EA000C01900D30131A24206D20023F0BD0000C8
:101EB000000000D0FFFFFFFF121B0130F3D3F1E75A
:101EC00009277F1BFE406446A2B27243801A00D2EB
:101ED0000139220C7243130C1204821A99410B002F
:101EE0007046043513370100F940A840801900D32B
:101EF0000131002B02D1A2420AD2F0BD013000D341
:101F00000131121BFAD2013BF8D1A24200D2F0BD3E
:101F1000013000D30131121BF7E7F0B51C0C00D0E3
:101F200080E00CB400251C0A04D11B02160E3343BA
:101F3000120208351C0B04D11B01160F334312018A
:101F400004359C0B04D19B00960F3343920002355D
:101F5000DC0B02D192185B4101351C0097186441DB
:101F60000134464F7C66464C3C660E0CFFE7FFE7AB
:101F7000FFE7C0463C6F6643360C7703BE4697B218
:101F80007743C01B00D20139C01B00D201399FB278
:101F90007743C91BC91B170C77437E04FF0B801BBB
:101FA000B941CE086643360C0C2D33DBB644120B18
:101FB0001F053A431B0B97B27743C01B00D2013970
:101FC0009FB27743C91B170C77433E043F0C801B1D
:101FD000B941860D8F023E43664329277F1BFE4091
:101FE0000C3D7746AF40BF1930BCA2B2ABB27243D2
:101FF0007343801A9941220C7243130C1204801A05
:10200000994102000B000137001BA941F9D2781E4B
:102010000021F0BD0C277F1BFE4077467F0BAF40B1
:10202000FF19E0E700245D1C07D0144F7D66396678
:10203000FFE7FFE7FFE7FFE73C6F95B29EB265431E
:102040006643401BB141150C1E0C654366433604C4
:102050002F0C3E432D04401BB141994204D2020093
:102060000B0020000021F0BD01D19042F7D3801A6F
:10207000994101349942F2D3F6E70000000000D004
:10208000FFFFFFFF48404140484018B4134B5B68D6
:10209000019308BD18B4114B1B68019308BD944609
:1020A0000F4A926F920805D2624618B40B4BDB6858
:1020B000019308BD0A4AF0B5146E556E576F166F3E
:1020C0006246FFF7F2FF064A1466556657671667C1
:1020D000F0BD18B4014B9B68019308BD6C40002013
:1020E000000000D0FFB550404240504059404B40A6
:1020F000594000E0FFB5154F4C00640D03D0BC42C1
:1021000004D10C0314D80020090D09055C00640DEE
:1021100003D0BC4204D11C030AD800221B0D1B05AE
:1021200001264B4009D44B4003D58B4200D182425B
:10213000FFBD9942FCD19042FFBD0B43DB18034326
:102140001343F5D0C9434918FFBD0000FF07000045
:1021500000B5FFF7CFFF01D0002000BD012000BD7A
:1021600000B5FFF7C7FF804100BDC04600B5FFF7CF
:10217000C1FF01D9002000BD012000BD00B5FFF75F
:10218000B1FF01D9002000BD012000BD00B5FFF75F
:10219000A9FF804100BD012040054A00121804D863
:1021A0005A00121801D80020704701207047000023
:1021B0000021002805D17047C1174840401AFAD0C5
:1021C000C90713B5064B1B6898470CBC441CA240BA
:1021D0001005120B0349091B09051943114310BDD2
:1021E0006C4100201F04000010B54C00620D8023DC
:1021F000D218DB00D21A5B057E2A10DD9E3A13DA74
:10220000CC170903490819435242D14064000134F4
:102210001532202A05DAD0400843604310BD002063
:1022200010BD0846604310BDC80FC018013810BD6E
:1022300018B4024B5B6A019308BD00006C4000209B
:1022400018B4024BDB6D019308BD00006C40002008
:10225000C94211D300B549004908002200F014F822
:10226000002904D4002240428A41114600BD802149
:102270000906002000BD000018B4024BDB6E01937C
:1022800008BD00006C40002018B4024B9B6F019306
:1022900008BD00006C40002018B4024BDB6F0193B6
:1022A00008BD00006C40002010B50148FEF744FA5C
:1022B00070A4041070B513231C78012C12D0012CCB
:1022C00012DC214B214A93642148FFF73BFB214B51
:1022D000186070BD20491D4A9800815001331F2BA2
:1022E000F8D9ECE70023FAE71C48FFF733FB0500B9
:1022F0001B48FFF72FFB023803789B007F2B09DD7B
:1023000012488022290000F035F9022C08D0022C56
:10231000DADCD6E7134B144A1448332101F0A2FA51
:10232000134B1A88B5231B029A4209D1114B1A8804
:10233000114B9A4204D1114B1A88114B9A42E6D0A4
:102340000020FEF7F9F9C046852300106C400020FC
:102350004C3300006C410020A922001053440000BF
:102360005346000088A4041004C10410CCA4041037
:1023700054380000D8380000494600009C3800005E
:102380005946000007B56046002800D100BE01880C
:102390000A0A0230DF2AFAD1C9B2820804D30288BD
:1023A00040880004104300E00068024A5050039047
:1023B00007BD00006C40002051434343C9188C46C0
:1023C000110C83B24B4310B4040C614392B280B23F
:1023D000504362431C041B0C001910BC59411304E8
:1023E000120CC018514161447047000007B54840C5
:1023F0004140484001E0C04607B54200120E03D0FC
:10240000FF2A03D1420218D8C00DC0054A00120E9F
:1024100003D0FF2A03D14A020FD8C90DC9050122F2
:10242000414005D4414001D5814207BD884207BDE6
:102430000143491801D0C043001807BD00B5FFF79C
:10244000DBFF01D0002000BD012000BD00B5FFF77B
:10245000D3FF01D9002000BD012000BD01231B06D0
:102460004200D21804D84A00D21801D80020704780
:102470000120704710B50148FEF75EF9F8A8041076
:1024800070B513231E781848FFF764FA0500012E73
:1024900011D0012E09DDAB1E1B789B007F2B1DDDAB
:1024A00012488022290000F065F81148FFF74AFA27
:1024B000104B186070BD0D485422290000F05AF8E6
:1024C000002300E001331F2BE3D8084A9C00A258E8
:1024D000002AF7D10849054AA150F3E7074B084AFB
:1024E0000848422101F0BEF9534600007041002027
:1024F0004C3300006C4100207524001014A504101A
:1025000018C1041048A5041010B5002804D04018C4
:10251000034B984200D810BD0248FEF70DF9C046A3
:10252000000004208CA5041070B5050036F0E4FF0F
:1025300004002900FFF7E8FF200070BD70B50D0012
:1025400037F0E0FA04002900FFF7DEFF200070BD3D
:1025500010B536F0DBFF10BD01480421014B1847D0
:102560007012002065190010014B1B68184700000D
:1025700070120020014B5B681847000070120020A9
:1025800010B5FFF7D1FF10BD10B5FFF7CDFF10BD9F
:1025900010B5FFF7DDFF10BD10B5FFF7D9FF10BD77
:1025A00010B5FFF7D5FF10BD9A4200D2885470478E
:1025B000704710B5002802D00B684968984710BDD5
:1025C0000100002007E083001B185B00501C08601E
:1025D0001078C01830380A681378303BDBB2092B0A
:1025E000F1D97047F0B5DE4657464E464546E0B550
:1025F00083B093461F000C9B9A460D9C0E9B9946F8
:102600000F9B9B0703D0B8460F00060022E0019203
:10261000A34688464E46B9460700B44207D2551C29
:102620004B4641462020B84701342A00F5E73D00DB
:102630004F465C46019B9B46B1464646B84637002E
:102640002E0007E0013C551C5346185D43463900F7
:10265000B0472A00002CF5D135003E0047460F9BBD
:102660009B0707D4100003B0F0BCBB46B246A94696
:10267000A046F0BDB0464E46B9462F005D46531BFE
:10268000B342EFD2541C4B4641462020B8472200AB
:10269000F5E7F0B5CE46474680B585B094469846F6
:1026A0000C9D0D9C0EAB1B789946109A119B129EA7
:1026B000B7071CD4002B0CD0F7070AD54F46002FC4
:1026C00002D10C37374204D0013B02E030272F55AE
:1026D0000134944201D21F2CF8D9F70707D59C4248
:1026E00005D21F2C03D830272F550134F5E7F70604
:1026F00012D5770505D4002C03D0944221D09C42FA
:102700001FD00F9A102A32D00F9A022A37D01F2CCE
:102710000AD830222A5501341F2C05D84A46002AEF
:1027200033D02D222A55013403960293019400954B
:1027300043466246FFF756FF05B0C0BCB946B046F7
:10274000F0BD621E012C10D00F9F102F0BD0140073
:102750000F9A102AD8D1B206D6D51F2CD4D8582219
:102760002A550134D3E7023CCBE71400C9E7B2068F
:10277000EED41F2CECD878222A550134C7E71F2C41
:10278000D2D860322A550134C1E7720703D52B2213
:102790002A550134C8E73207C6D520222A5501340C
:1027A000C2E7F0B5DE4657464E464546E0B593B023
:1027B00081468A46089209931CAB10CB1B789B4636
:1027C0001E9D219B9846002C03D1102342469A431C
:1027D00090468023DB0046461E4042461A4212D0F5
:1027E000002C22D000260EE03033D9B2771C0AAB81
:1027F000995529002000FFF70DFAAC4216D31F2F80
:1028000014D83E00040029002000FFF703FACBB2E1
:10281000092BE9D94246920605D54121C918C9B20A
:102820000A39C9B2E2E76121F8E727004346069377
:10283000209B05931F9B049303955B46029301978E
:102840000AAB0093099B089A51464846FFF721FFBF
:1028500013B0F0BCBB46B246A946A046F0BDF0B5E9
:10286000DE4657464E464546E0B597B00A900B9176
:102870000C929A46209B9946219F22AA13789B4648
:10288000249B0993259C289B98464A463A4302D1AB
:102890001032934398468022D20045461540434665
:1028A00013420AD04A463A4341D000252E005346EF
:1028B0000D934D46099B9A461BE02E0053460D93FF
:1028C0004D46099B9A4614E03033DAB2731C9946A0
:1028D0000EAB9A555246230028003900FFF7D8F96D
:1028E000BC4226D819D04B461F2B1CD84E4605009B
:1028F0000F005246230028003900FFF7C9F9D3B270
:10290000092BE1D94246920605D54122D218D2B20E
:102910000A3AD2B2DAE76122F8E7AA45E3D94E468D
:102920000D9B9A4608E04E460D9B9A4604E0002611
:1029300002E04E460D9B9A4643460693279B05931D
:10294000269B0493099B03935B46029301960EAB6F
:10295000009353460C9A0B990A98FFF79AFE17B00A
:10296000F0BCBB46B246A946A046F0BDF0B5DE4677
:1029700057464E464546E0B591B0804689460C9292
:102980009A461A9C1B9D22002B0020002900FFF76D
:1029900002FC002800D0ECE001225242D44B20007F
:1029A0002900FFF7F3FB002800D0E2E001225242A9
:1029B000D04B20002900FFF7D3FB002800D0D8E03F
:1029C0000022002320002900FFF7CAFB002800D0C6
:1029D000E4E0069407958023DB001E9A1A400D92CE
:1029E0001E9A1A4201D106231C93069807990200E9
:1029F0000B000892099303000A00024300D1D9E0BA
:102A0000080D4005400DBC4EB44660440A03120B4D
:102A10001E00BA4B13431F00FFF7CEFBB84AB94B59
:102A2000FFF757FBB84AB94BFFF734FB0890099101
:102A30000022B74B30003900FFF727FBB54AB64BF1
:102A4000FFF747FB02000B0008980999FFF722FBEC
:102A5000FFF7CAFB8346FFF7AFFB06000F00AF4A44
:102A6000AF4BFFF736FB0022AE4BFFF713FBFFF730
:102A7000BBFB0890AC4AAD4B30003900FFF729FB97
:102A800006000F000898FFF797FBA94AA94BFFF72C
:102A900020FB02000B0030003900FFF7F6FA0600B9
:102AA0000F0002000B00FFF714FB0A900B91089B2C
:102AB000A14A9446634400210022089109921B0513
:102AC00009930023089332003B0030003900FFF7E0
:102AD000E1FA0E900F9132003B0000208021C905E1
:102AE000FFF7D3FA06000F000022944B0A980B99C7
:102AF000FFF7D5FA0022924BFFF7CCFA02000B0049
:102B00000A980B99FFF7CBFA00228E4BFFF7C2FA17
:102B100002000B000A980B99FFF7C1FA02000B00A4
:102B200030003900FFF7B6FA02000B000E980F993B
:102B3000FFF7B5FA0022714BFFF7ACFA089A099B30
:102B4000FFF7C7FA06000F0008960997069A079B39
:102B5000FFF71CFB00282FD001235B429C46E34477
:102B60000022774B30003900FFF799FA089009915D
:102B700022E01E9B04931D9B03931C9B02930094D5
:102B8000019553460C9A4946404600F0FFF811B0B3
:102B9000F0BCBB46B246A946A046F0BD00210022CB
:102BA00006910792069480231B069C46AC4463461C
:102BB000079310E700239B465B466333C62B20D860
:102BC00004261E9B1B0528D5089A099B1900114352
:102BD0000FD05D4A5D4B06980799FFF7CFFA0028A2
:102BE0007AD000225A4B06980799FFF7B9FA0028C5
:102BF00072D01C9B5B4506DD5A469B1A013B1C9319
:102C000003E00526DDE700231C938023DB001E9AEA
:102C10001A431E92002600239B461D9B9E4265D2AE
:102C20009F1B02231E9A1A400A921E9A134202D038
:102C3000002E00D000275B46002B07D0089A099B86
:102C400006980799FFF72BFA0690079100220023B8
:102C500020002900FFF784FA002800D07CE03D4BDB
:102C60001E9A1340049303971C9B0293069B079C98
:102C70000093019453460C9A4946404600F086F86A
:102C8000002E00D183E71E9B9B0671D54525441C71
:102C90005346020049462800C0475A46D317D21867
:102CA0005A4005230593013E0496002303930A33FB
:102CB00002935B46DB0F0193009253462200494684
:102CC0004046FFF76EFD0A9B002B00D15FE7020034
:102CD00047460C9E1D9D53E01C9B002B9DD00D9BD9
:102CE000002B9AD01C9B013B1C9396E7002798E78A
:102CF000FFFFEF7FFFFFEFFF01FCFFFF0000F03F52
:102D0000FB799F501344D33FB3C8608B288AC63FDA
:102D10000000F83F61436F63A787D23F71A3790931
:102D20004F930A400000E03F1655B5BBB16B02401F
:102D3000EF39FAFE422EE63FFF03000000002C4070
:102D400000002440000018402D431CEBE2361A3FDF
:102D500080842E41FFF7FFFF069C079D220029007B
:102D600080200006844661440B000692079376E7B4
:102D700065258CE7541C534649462020B84722005D
:102D8000931BAB42F6D3100001E7C046F0B5DE4618
:102D900057464E464546E0B595B006900791934696
:102DA0009946209F1E9A1F9B10001900FFF7F3F908
:102DB000002831D101225242BF4B1E981F99FFF7C4
:102DC000CFF9002837D101225242BC4B1E981F99DF
:102DD000FFF7DCF900283DD10022B94B1E981F995E
:102DE000FFF7D4F9002850D10022B64B1E981F9946
:102DF000FFF7B6F9002848D1002200231E981F993A
:102E0000FFF7AEF9002850D100239846229B5B05BE
:102E100000D4B6E0002458E0229B0393219B029348
:102E200003230193A84B00934B465A4607990698F3
:102E3000FFF7D8FB0EE1229B0393219B029304230F
:102E40000193A24B00934B465A4607990698FFF709
:102E5000C9FBFFE00423229A1A4022990B4210D0AA
:102E60009B4B002A0FD004222299039121990291B1
:102E7000019200934B465A4607990698FFF7B2FB1A
:102E8000E8E0944BEDE70322EEE7229B0493219BBD
:102E9000039302971E9B1F9C009301944B465A4636
:102EA00007990698FFF762FDD4E01E9A1F9B002049
:102EB0000021FFF7EAF81E901F9101239846A5E72D
:102EC0000CAB30221A55013F01341F2C01D8092FB9
:102ED000F6D81E981F99FFF787F90500FFF76CF9E0
:102EE00002000B001E981F99FFF7CFF87A4BFA00EB
:102EF0009B181A685B680A920B93FFF7EAF8089030
:102F00000991FFF795F90600FFF752F902000B004F
:102F100008980999FFF7B9F80890099100226F4BBA
:102F2000FFF734F900282ED001363000FFF740F9C2
:102F300002000B000A980B99FFF718F9002801D03E
:102F400001350026002F2CD12800FFF735F90200AB
:102F50000B001E981F99FFF798F806000F0000223B
:102F60005E4BFFF7FDF8002846D100225B4B300096
:102F70003900FFF70BF900283ED1EB073CD50135AE
:102F80003AE0062746E70022544B08980999FFF7D4
:102F9000E7F80028D6D1002E01D0F307D2D50136AC
:102FA000D0E7AA461F2C11D8013F0A213000FEF7B6
:102FB00031FE651C30310CAB19550A213000FEF78B
:102FC00029FE092E0ED906002C00EBE755461F2CD2
:102FD0000CD87B1E002F09D00CAA302111551F00E0
:102FE0000134F4E72B0055461C00F0E71F2C03D8F2
:102FF0000CAB2E221A5501341F2C10D80A212800A0
:10300000FEF7E0FD661C30310CAB19550A21280093
:10301000FEF7D8FD051E01D03400EDE73400032390
:10302000229A1340012B1CD01F2C06D84346002B9C
:1030300032D00CAB2D221A550134229B0393219BD5
:10304000029301940CAB00934B465A46079906989D
:10305000FFF7C8FA15B0F0BCBB46B246A946A04679
:10306000F0BD219B002B13D04346002B02D10C3323
:1030700013420FD0219B013B2193190003E00CABBD
:1030800030221A5501348C42CED21F2CF7D9CBE70F
:103090002199F8E72199F6E7229B5B0704D50CAB51
:1030A0002B221A550134C8E7229B1B07C5D50CAB50
:1030B00020221A550134C0E7FFFFEFFFFFFFEF7F2B
:1030C00065CDCD4165CDCDC1E8A50410ECA50410BA
:1030D000DCA50410E4A5041020C304100000E03FA8
:1030E000F0B5DE4657464E464546E0B593B08246BB
:1030F000884693461193002900D10DE300255646DA
:10310000119B1878002800D109E3252809D06C1CF0
:103110005B462A004146B047119B013311932500BD
:10312000EEE701331193002720E001231F43013212
:103130001192012418E002231F430132119201244D
:1031400012E004231F430132119201240CE00823F2
:103150001F4301321192012406E010231F43013264
:103160001192012400E00024002C09D0119A137858
:10317000203BD9B21029F6D88B00C849CB589F46BE
:10318000119B1A781300303BDBB2092B10D92A2A85
:1031900013D00B94119B1A782E2A1ED0119A1378F3
:1031A000683BD9B2122959D88B00BD49CB589F46EC
:1031B00011A8FFF705FA0B90ECE71C9B1A1D1C9257
:1031C0001B68002B04DB0B93119B01331193E1E788
:1031D000022217435B420B93F6E78022D20017438B
:1031E0005A1C11925A781300303BDBB2092B0BD9D1
:1031F0002A2AD3D11C9B1A1D1C921C68002C08DBA8
:10320000119B01331193C9E711A8FFF7D9F9040005
:10321000C4E70024F4E780235B003B43511C119179
:1032200051786C2901D01F0018E0C0239B001F4378
:103230000232119212E080233B43511C11915178CC
:10324000682901D01F0009E0C0231F4302321192F8
:1032500004E080235B001F4301321192119B187818
:10326000672818D8252800D24CE20300253BDAB2A3
:10327000422A00D946E293008A4AD3589F468023C7
:103280009B001F4301321192E8E780235B001F433C
:1032900001321192E2E7782800D933E2692800D29E
:1032A00030E20200693AD2B2012393407E4A1342CF
:1032B00011D11A0600D500E25B0500D422E21C9B66
:1032C0001A1D1C921B689A46002C00D0B2E1012204
:1032D000524253468EE16F280ED006D858283DD072
:1032E000622804D102239C4608E0782839D01023B4
:1032F0009F43063B9C4601E008239C46582833D058
:10330000692803D0642801D00C2297437A0501D59F
:103310000122974369282AD0642828D0BA0500D50D
:103320009FE0FA0500D5C1E07A0600D4D3E01C9AEC
:10333000111D1C911168FF220A4005970B9B0493F5
:103340000394634602930023019300925B462A0094
:1033500041463000FFF725FA050027E010239C4680
:10336000CCE710239C46C9E720221743C8E7BA05DB
:1033700020D4FA0550D47A0666D51C9A111D1C91EA
:103380001168FF220A40D0171118414005970B9B86
:103390000493039463460293D20F019200915B461B
:1033A0002A0041463000FFF7FCF90500119B01336C
:1033B0001193A5E61C9A073207218A4311000831B0
:1033C0001C91116853689946DB170C930D930C9A66
:1033D0000D9B100048400E904A4653400F930E98A4
:1033E0000F990C9A0D9B801A99410E900F91089796
:1033F0000B9B0793069463460493002305934B4667
:10340000DA0F0292009001915B462A00414630009B
:10341000FFF725FA0500C9E71C9A111D1C911268D7
:10342000D0171118414005970B9B049303946346F2
:103430000293D20F019200915B462A004146300070
:10344000FFF7AFF90500B1E73A0605D51C9A111D43
:103450001C910023D25E96E71C9A111D1C911268E4
:1034600091E71C9A073207218A43110008311C9109
:1034700008970B9B079306946346049300230593D8
:10348000029353681268009201935B462A004146FA
:103490003000FFF7E4F9050088E7C04680C104105A
:1034A000C4C1041010C20410419000001C9A111DE8
:1034B0001C9105970B9B049303946346029300238E
:1034C0000193136800935B462A0041463000FFF7E2
:1034D00068F905006AE73A0606D51C9A111D1C9189
:1034E00012681204120C28E71C9A111D1C91126814
:1034F00023E7462819D01C9B0733072293431A0061
:1035000008321C9204970B9A039202941A685B6823
:10351000009201935B462A0041463000FFF736FCDB
:103520000500119B01331193EAE520231F43E2E7D5
:10353000672801D0472802D180231B011F4345285B
:1035400001D0472801D120231F431C9B07330722AA
:1035500093431A0008321C9204970B9A0392029428
:103560001A685B68009201935B462A00414630006E
:10357000FFF7FCF90500119B01331193C0E502230D
:103580001A003A4091463B421DD001241C9B1A1D53
:103590001C926F1C18785B462A004146B0474B4688
:1035A000002B14D1119B013311933D00A8E5571C4A
:1035B0005B4641462020B04723003A005C1C9D42F8
:1035C000F5D81500E2E701232A000B9DF6E73A0043
:1035D000B1460B9E06E0571C5B4641462020C8477B
:1035E0002C003A00651CA642F5D817004E46D9E7D4
:1035F00001330A001978002902D0511E002AF7D1A0
:1036000052469B1A8022D200390011408946174247
:1036100002D0A34200D923000222110039401091A8
:103620003A4209D02A00250057469A4633004E46B2
:10363000994621E022004CE62A004546A04606E0D5
:10364000541C5B4629002020B0473B0022005F1C31
:103650000B999942F4D84446A8463B0025005746AA
:103660009A4633004E46994606E01D000137541C29
:103670005B464146C84722003878002804D0002E17
:10368000F4D06B1E002DF0D1150053464E46109A13
:10369000002A03D1119B0133119331E50B9F2A00BE
:1036A00006E0551C5B4641462020B04723002A0017
:1036B0005C1C9F42F5D81500ECE721233B431C9A84
:1036C000111D1C9112680593082304930394083379
:1036D00002930023019300925B462A00414630008A
:1036E000FFF75FF80500119B0133119308E56C1C8F
:1036F0005B462A0041462520B047119B01331193B8
:103700002500FDE46C1C5B462A004146B047119B36
:10371000013311932500F3E40A4B9A46EEE4B246D6
:103720005D450DD35B465A1E5B4641460020D0479F
:10373000280013B0F0BCBB46B246A946A046F0BD77
:103740002A00F1E7B12500100EB430B584B00100B5
:1037500007AC08CC03940122054D00945242280086
:10376000FFF7BEFC04B030BC08BC03B01847C0462D
:10377000A925001010B582B0044C009313000A0074
:1037800001002000FFF7ACFC02B010BDA92500101D
:1037900000B585B002900391012104480093130005
:1037A0004A4202A9FFF79CFC05B000BDB3250010FA
:1037B00000BEFDE703000A4A1268002A08D0084A42
:1037C0001068C318074A9A4206D3054A1360704727
:1037D000034A05491160F2E701204042F7E7C0467D
:1037E000783E002000000420804200200020704726
:1037F000012040427047000010B50300080011008E
:10380000002B05D1044B1A685B6800F03FF910BD2E
:1038100001204042FBE7C046F0C0041010B5030091
:1038200008001400013B012B06D8012300222100CF
:1038300000F0E2F8200010BD01204042FBE701202B
:10384000404270470120404270470120404270478B
:103850000300002002229A424041704710B5FFF752
:10386000A7FF000030B583B00D001900002A0BD06F
:10387000074B084C019200932B000200200000F03F
:1038800099F90120FFF794FF034B1A00F1E7C046B6
:10389000F4A5041004A60410F8A8041010B5EFF362
:1038A0000583002B00D000BEFEF79CF8034C01E01E
:1038B00008CC9847024B9C42FAD310BD34A00410A8
:1038C0005CA0041010B50300080011001B689847A5
:1038D00010BD0000F8B507000D001600437D002B59
:1038E00002D0002400200CE0036811002800984753
:1038F0002DE03B7D10E03B68154802219847601C95
:103900000134B44214DA002CF3DD2B19013B1B788F
:103910000D3B5A425341DBB22A5D0A2AF0D1002BFB
:10392000EED1A042E7DA3B68211A28189847E2E76F
:10393000B04203DA3B68311A28189847002E06DD9A
:10394000AD19013D2B780D3B5A4253413B75F8BDF3
:1039500070C3041070B505000368002B16D00C4B23
:103960001C6805E0290004C92000FFF7B3FF2469A3
:10397000002C09D02368002BF9D0064B1B68002BC4
:10398000F0D0A342F3D1EDE700232B6070BDC04619
:103990006C3E0020743E002070B505000C000B68E2
:1039A000802B05D023685A1C2260E418257170BD55
:1039B0000800FFF7CFFFF5E710B5FDF7C9FD074A8F
:1039C000002312184B41002B03DB054846F0ECFAAC
:1039D00010BD01225242034BF7E7C04640420F00A0
:1039E00020230020FFFFFF7F10B5024846F08CFA2D
:1039F00010BDC04620230020F0B5CE46474680B516
:103A000083B006000D0090461C00FFF7D5FF8146ED
:103A10006B1C05D0002C08D0184F194B1C6807E010
:103A200030003CF0C9F90500F4E7164FF5E72469CA
:103A3000002C17D02368002BF9D0134B1B68002BE8
:103A400001D0A342F3D12A0031002000B8474346F9
:103A5000002BECD06B46D91D0A230B7001222000ED
:103A6000B847E4E74B46002B05D1280003B0C0BCA3
:103A7000B946B046F0BDFFF7B7FFF6E7D5380010FE
:103A80006C3E0020C5380010743E0020F0B583B0B5
:103A900006000F0001920093164B1C6808E0A36813
:103AA000002B04D0390030009847002820DC24691E
:103AB000002C06D0104B1D68002DF0D0A542F6D189
:103AC000EDE700990A000D4B5B6A994209D80B4952
:103AD000896A0198814209D29A4202D0022040426A
:103AE00006E001200021FDF73BFDD5E70220404222
:103AF00003B0F0BD6C3E0020743E00200040054045
:103B0000094A01E010331A001368002B08D08342E1
:103B1000F8D1002907D1036913600023036102E093
:103B2000002900D0106070476C3E002010B5064B95
:103B30001C6801E098472469002C03D06368002BBF
:103B4000F8D1F8E710BDC0466C3E002010B500F07B
:103B500043F9012010BD70B505003CF02DF90400BB
:103B60000123012201002800FFF746FFFFF7DEFFD7
:103B7000200070BD70B5A2B004000E00FFF71CFF5E
:103B80000500002301930A483300220001A9FFF732
:103B9000FFFD040001A8FFF7DDFEFFF7C7FF002DC2
:103BA00002D1200022B070BDFFF71EFFF9E7C0462A
:103BB000993900100FB400B583B004A901C901916F
:103BC000FFF7D8FF03B008BC04B0184710B582B0A7
:103BD0000C00144BC3185A425341134A5B009B5EBE
:103BE0008B4204D06B46DA1D1470002115E06B4641
:103BF000DA1D0D23137000210029F3D183699B0680
:103C0000FCD41378036001310132F5E783699B0628
:103C1000FCD413780360013101320029F6D002B0E0
:103C200010BDC0460080FCBF7442002082B000225C
:103C30006B46D91D06E08369DB06FCD403680B7074
:103C400001320131002AF6D06B46D87902B07047B4
:103C500070B506000D00002405E0315D034B1868C7
:103C6000FFF7B4FF0134AC42F7DB70BD78420020AF
:103C7000F8B506000D00002705E07C1CF719FFF7DA
:103C8000D5FF38702700AF4204DA0D4A1068826908
:103C9000D206F2D50B4A1268002A0AD0084A1268E6
:103CA00050219163506B18390140074B9C46624488
:103CB0001160002F01D03800F8BD033FFBE7C0467C
:103CC00078420020383E00203410000010B5064B2A
:103CD0001B68002B06D0054A126800219163044A34
:103CE0001068984710BDC046383E0020784200203A
:103CF0003C3E0020024B1A6893691B07FCD47047B6
:103D00007842002070B51D4B1B681D4A934207D0B6
:103D1000142400281ED01B4B1B68002B02D070BD42
:103D20001524F6E7174B1860174B19601749200048
:103D3000FCF716FE01212000FCF700FE0F4B1B686C
:103D400050229A63596B183A0A4011498C466344D1
:103D50001A60E4E70B4A1268002AE0D000259D6350
:103D600000212000FCF7EAFD08492000FCF722FEB4
:103D7000044B1D60044B1D60D1E7C0467842002013
:103D800000800340383E00203C3E0020CD3C001027
:103D90003410000070B50D001C000D4B1860002A97
:103DA0000BDA002C0EDA0A4B18682900FDF778FCB4
:103DB00008480121FFF7A4FE70BD02211000FCF7A6
:103DC00055FCEEE702212000FCF750FCEBE7C04673
:103DD000784200208012002010B5074B1B78074B5B
:103DE0001B78074B1B78E12101230022490205487B
:103DF000FFF7D0FF10BDC04660D505105CD505109B
:103E000058D505100040034010B5054C200000F0C7
:103E100019FA2000034A04492AF05CFF10BDC0468D
:103E2000FC3A0020F411002065420010F0B5DE4697
:103E300057464E4645460122E0B5DF4D0024280096
:103E4000DE4B83B01A70DE4B1C3098461B686C60EA
:103E50009E68DC4BAC609B462B60EC602C616C6117
:103E6000AC6101F019F9D84BD84F9A462B60012369
:103E70005B4299466B6243461B682E6238005E685F
:103E80005B461C303B607C60BC60FC603C617C61DC
:103E9000BC6101F001F953463B604B467B624346EF
:103EA0003E62CB4E5A4630001B681C30DB683260E5
:103EB00001937460B460F46034617461B46101F0C2
:103EC000EBF8019B524633624B467362C14B326042
:103ED0009946180015F05AF84B4678221C67043BA7
:103EE0009C5208329C5004329C5004329C50DC6737
:103EF000B94C29002200484614321C605A6014F064
:103F0000D9FFB64D280015F041F82B0000227C2186
:103F1000083B5A5204315A5004315A5004315A5015
:103F200004315A50AE4928001960143199603900A3
:103F30002A675A6014F0BEFFAA4D280015F026F833
:103F4000002278212B1F5A5208315A5004315A50FE
:103F500004315A502A67AA6722003100143228001F
:103F60001C602A6014F0A6FF9F4D280015F00EF883
:103F7000002278212B1F5A5208315A5004315A50CE
:103F800004315A501C603100143428002A67AA6793
:103F90002C6014F08FFF80229449954B9201996711
:103FA000944B954D1869596702431A61434628009E
:103FB00000241B681C309E68904B6C609B462B60F5
:103FC000AC60EC602C616C61AC6101F065F88C4B0D
:103FD0008C4F9A462B6001235B4299466B624346A5
:103FE0001B682E6238005E685B461C303B607C605C
:103FF000BC60FC603C617C61BC6101F04DF85346E3
:104000003B604B467B6243461B683E627E4EDB68EC
:10401000300098465B461C3033607460B460F460D6
:1040200034617461B46101F037F85346336043463C
:1040300033624B467362754B9846180014F0A6FF26
:1040400043467C221C675C67043B9C5404329C50B2
:1040500004329C5004329C5004329C506C4C290019
:104060002200404614321C605A6014F079FF694DFA
:10407000280014F08BFF2B0000228021083B5A54AB
:1040800004315A5004315A5004315A5004315A50B4
:104090006149280019601431996039002A676A67FC
:1040A0005A6014F05DFF5D4D280014F06FFF002290
:1040B0007C212B1F5A5404315A5004315A50043178
:1040C0005A5004315A502A676A672200310014326C
:1040D00028001C602A6014F043FF514D280014F0A2
:1040E00055FF00227C212B1F5A5404315A500431B1
:1040F0005A5004315A5004315A501C603100143463
:1041000028002A676A672C6014F02AFF8022454B3A
:10411000454992019967454B1869596702431A61ED
:10412000434A13680133136003B0F0BCBB46B24688
:10413000A946A046F0BD2D4B3E4A48465A6014F0B1
:1041400061FF2BF017F83C4B3C4A28005A6014F0F2
:1041500059FF2BF00FF8354B384A28005A6014F0FD
:1041600051FF2BF007F82F4B344A28009A6014F0C7
:1041700049FF2AF0FFFF2C4B304A40465A6014F0AA
:1041800041FF2AF0F7FF2E4B2A4A28005A6014F00C
:1041900039FF2AF0EFFF174B264A28005A6014F027
:1041A00031FF2AF0E7FF124B224A28009A6014F0F0
:1041B00029FF2AF0DFFFC04640340020981200207B
:1041C000C819002028F70410ECEC0410F03300208C
:1041D00018340020303800206CF604108C36002093
:1041E00078EE041018370020A43700202C38002067
:1041F0008436002014370020B834002068F70410FB
:104200002CED04106834002090340020703A002017
:104210009CF60410C0380020A8EE0410503900208D
:10422000E0390020B83800206C3A00204C390020DA
:1042300050360020CCED0410DC390020DCED0410F9
:10424000A0370020064A10B513680400591C1160FD
:10425000002B01D0200010BDFFF7E8FDFAE7C046B3
:1042600050360020104A10B513680400591E116022
:10427000022B01D0200010BD0C481FF0D5F90C48CE
:104280001FF0D2F90B481FF0CFF90B481FF08AFC42
:104290000A481FF087FC0A481FF084FCEAE72BF06D
:1042A000F3F82BF02BF9E5E7503600202C380020EE
:1042B00014370020A03700206C3A00204C39002031
:1042C000DC3900207047C04610B50400FEF760F9E5
:1042D000200010BD044A0B6812680360934202D0AC
:1042E0001A6801321A607047D035002001607047AB
:1042F00010B5064C2068002800D010BD2000002218
:1043000003492CF0F5FA2068F7E7C046D8350020BD
:10431000ACC3041000487047ACC30410416870B5CA
:104320000500002916D08368002B10D00024354EDC
:10433000A2005058002805D043685A1E4260012B45
:1043400036D0AB680134A342F2D8002902D008006D
:10435000FEF722F9E968002916D0AB68002B10D0CF
:104360000024284EA2005058002805D043685A1E49
:104370004260012B24D0AB680134A342F2D800295B
:1043800002D00800FEF708F92B690024002B0DD09D
:104390001859002802D0FEF7FFF82B690434182CB6
:1043A000F6D1002B02D01800FEF7F6F8280070BDF9
:1043B00003685B68B3420BD1FEF7EAF86968C0E7AF
:1043C00003685B68B34206D1FEF7E2F8E968D2E71A
:1043D00098476968B5E79847E968CCE72BF054F847
:1043E0002BF08CF86968ACE72BF04EF82BF086F8D0
:1043F000E968C0E7013102D12AF0C8FFFAE72AF0E4
:10440000B9FEC046C94200100A4B70B51B6805686A
:1044100004009D4204D02B685A1E2A60012B01D053
:10442000200070BD2800FFF779FF2800FEF7B0F8E4
:10443000F6E7C046D03500200E4A0B68126870B50A
:1044400004000D00934202D01968013119602668FA
:10445000B24204D03268511E3160012A02D02000DD
:10446000236070BD3000FFF759FF3000FEF790F871
:104470002B68F4E7D0350020F0B54E464546DE46C1
:104480005746E0B50500160083B0002A00D1EEE0E3
:104490000C68002C04D1B94B1C6801341C600C6002
:1044A0006B68671E9A46AB68013BBB4267D2E31C50
:1044B0009B46B34B9B4500D8E4E001204042FEF709
:1044C00063F801238146A8685B429846002813D010
:1044D0006B6822009C4681000C00002361468446E4
:1044E00048469146CA58C2500433A342FAD14C46BA
:1044F00081466046584507D2221A033280000021C7
:1045000092004844FEF730F8EB6840460193FEF70E
:104510003BF88046A868002813D0EB6881009C46D1
:1045200002004046884600236146A4464446904621
:10453000CA58C2500433A342FAD143466446804667
:104540001800834507D9221A033280000021920007
:104550004044FEF709F85B46AB604B466B60434650
:10456000EB605346002B02D05046FEF715F8019B36
:10457000002B02D00198FEF70FF86B689A46BF0037
:104580007368574438680133B9467360002849D0CE
:104590007C490F68002F40D0784B8446A84618000D
:1045A0000DE0002A03D10268013202602A609442C1
:1045B00000D17BE08F680831002F00D199E03B6883
:1045C000002B03D10368013303603B604D682A6808
:1045D0009C42E6D1130060462A004546002B04D1D8
:1045E00066490B6801330B601360013B9C00544427
:1045F0002368002B11D0110030000EF023FC43681B
:10460000070001334360206843685A1E4260012B53
:1046100000D178E04B462760186843685A1E426014
:10462000012B3BD04B46AA681E60002A1FD00023F6
:104630009946554B00249846E96805E04A461A60B9
:10464000AA680134A24212D9A6008B191868002862
:10465000F7D04268571E4760012AEFD103685B68B4
:1046600043450BD1FDF794FFE9688B19E6E703B0EA
:10467000F0BCBB46B246A946A046F0BD9847E968E3
:104680008B19DBE75B469B0018009846FDF77CFF23
:104690008146A868002800D01AE72BE703683A4A49
:1046A0005B6893422DD1FDF773FFBBE73B68604623
:1046B0004546002B04D1314A1368013313603B6037
:1046C000013B9C0054442368002BA6D039003000E5
:1046D00004F05AFF43688046013343602068436812
:1046E0005A1E4260012B16D0434623604B46186881
:1046F00093E76046436845465A1E4260012B91D1BC
:10470000CCE798478EE703681F4A5B6893420AD15B
:10471000FDF73EFF7EE703681B4A5B68934204D1C6
:10472000FDF736FFE0E7984774E79847DCE72AF0A3
:10473000ABFE4846FDF730FF2BF016FB2AF0A4FE37
:104740002AF0DCFE6EE72AF09FFE2AF0D7FE96E7FD
:104750002AF09AFE2AF0D2FE5CE72AF095FE2AF0B3
:10476000CDFEC1E72AF0CAFE2AF004FD0131FBD1DB
:104770002AF00CFEFAE7F9E7F8E7C046D435002046
:10478000FEFFFF1FB0C30410C9420010F8B53C4E35
:10479000070030000C0015002BF01EFB002833D161
:1047A0003848FB6806689C46002E5FD036490CE00E
:1047B000002B03D10B6801330B603B60013B9D4232
:1047C00026D086680830002E3DD03268002A03D1FA
:1047D0000A6801320A6032604768013A3B689542D4
:1047E000E6D1002B3AD0AD0065442A68013B002A8F
:1047F0001DD0002C07D02368244A5B682000934218
:1048000032D1FDF7C5FEF8BD30002BF001FBC7E744
:104810003268002A04D11C4B1A6801321A603260D7
:104820002B00551EAD0065442A68002AE1D162685C
:10483000501C60602C60581CE5D0023262606246F9
:104840009B009C50DFE7AD00290061440B68002B02
:10485000CFD16368013363600C60D4E70A4A136800
:10486000013313603B60BEE79847CCE7AD00654479
:104870002B68002BBDD16368013363602C60C2E7F5
:1048800004280020B0C30410D4350020C942001011
:1048900003000068002804D1034A1068013010604A
:1048A000186001387047C046D4350020F0B5DE46A8
:1048B0004E46454657463023E0B50600FE4C91B0C3
:1048C000C0228360016000212000FDF74DFE74606E
:1048D000FA4CC02200212000FDF746FEF460F84C9F
:1048E000142200212000FDF73FFE043CF54D346109
:1048F0002560FFF70FFD022201002800FDF73AFEB8
:10490000F14C012300220021200005F0EDFF2200E0
:104910003000EE49FFF7B0FDED4C012120002CF0F6
:1049200087F822003000EB49FFF7A6FDEA49EB4B80
:1049300001220B60002308008B60CB600B744B617D
:104940008B61CB610B628B8400914A600021E44C47
:104950006433C154E34BA0600021200062602360F7
:1049600001F0B8F8E04B2200190030000993FFF77E
:1049700083FD0123DD4A30005360DD4BDD491360C8
:10498000FFF77AFD0123DC4A30005360DB4BDC4942
:104990001360FFF771FD0123DA4C6360DA4B23608B
:1049A000FFF7A6FCA06022003000D849FFF764FDA5
:1049B000D74B01229A4651465A60D64B50460B605F
:1049C00000238B60CB600021D34C03824361836161
:1049D000C361036243628362C3620363436343331D
:1049E000C154CE4B81746260A0600022002120007F
:1049F000236000F0D7FBCA4B22001900300005935A
:104A0000FFF73AFDC74B0122994649465A60C64B0B
:104A100048460B6000238B60CB600021C34C0382AF
:104A200043618361C361036243628362C362036360
:104A300043634333C154BE4B81746260A060002263
:104A400000212000236000F05DFBBA4B220019001A
:104A500030000893FFF710FD0123B74A3000536080
:104A6000B64BB7491360FFF707FD0123B54A300085
:104A70005360B54BB5491360FFF7FEFC0123B44DFD
:104A800080226B60B34B00202B600023AB60EB6097
:104A90002B616B61AB61EB612B626B62AB62EB62B2
:104AA0002B636B63AB63EB632B646B64AB64EB6492
:104AB0002B656B65AB65EB652B666B66AB66EB6672
:104AC0002B676B67AB67AB500432AB500432AB5013
:104AD0000432AB500432AB500432AB500432AB5012
:104AE0000432AB500432AB500432AB500432AB5002
:104AF0000432AB500432AB500432AB502A000021D8
:104B0000B83210605160C022934CAB500432AB54A9
:104B100029002000C33AEB6715F080FE8F4B22007E
:104B2000190030000293FFF7A7FC01238C4A3000E4
:104B300053608C4B8C491360FFF79EFC01238B4A1A
:104B4000300053608A4B8B491360FFF795FC8A4C09
:104B5000012120000AF01AFB220030008749FFF7EC
:104B60008BFC874C0121200005F092FE22003000D2
:104B70008449FFF781FC844C012120002BF070FF59
:104B8000220030008149FFF777FC814B01229B46D0
:104B900059465A607F4B5C460B60002300208B60B7
:104BA000CB600B744B618B61CB6100212062616231
:104BB0009221584649006354A362774C774BA0601A
:104BC000002120006260236001F00AF8744B22008B
:104BD000190030000693FFF74FFC0123714A3000A3
:104BE0005360714B71491360FFF746FC0123704A13
:104BF000300053606F4B70491360FFF73DFC012399
:104C00006E4C63606E4B2360FFF772FBA060220066
:104C100030006C49FFF730FC6B4B0122984641464F
:104C20005A606A4B40460B6000238B60CB600B746C
:104C30004B618B61CB610B624B628B62CB620B630E
:104C40004B638B63CB636C21614C4354614B62605B
:104C5000A060002200212000236000F0ABFB5E4B2F
:104C60002200190030000393FFF706FC5B4F5C4BFA
:104C70006C213B60002301225A4C7B54BB60FB60DB
:104C80003B747B61BB61FB613B627B62BB62FB622D
:104C90003B637B63BB63FB63534B7A6062600021C1
:104CA000002220002360A76000F034FB4F4B22005D
:104CB000190030009CE0C046103300202032002054
:104CC0000C320020F82A0020042B0020C8350020D8
:104CD000E03200203036002028290020F0CB0410DC
:104CE000342800200CDE041000360020D0330020D1
:104CF0005CF4041040360020E033002098F40410E7
:104D000048360020F8320020F0DD0410F035002095
:104D100090290020C0CB0410D828002064DE0410A5
:104D2000E0350020D4290020B0CB0410E428002076
:104D300030DE0410E43500207C280020B4DE0410AE
:104D4000103600208C280020CCDE041018360020FD
:104D500050240020C8F404109C28002010350020A6
:104D60004C280020E4DE0410083600205C280020D7
:104D7000C8F504106C36002014280020F8350020F7
:104D8000242D0020CC350020EC32002034360020C9
:104D90002823002000CC04104028002060EB0410E1
:104DA00004360020D8330020B8FD0410443600201B
:104DB000E8330020F4FD04104C36002004330020BA
:104DC00044EB0410F4350020182A0020E0CB041036
:104DD000F0280020B8EB0410E8350020882A0020D5
:104DE000D0CB0410FC28002084EB0410EC3500200C
:104DF0000493FFF741FB0123894A30005360894B3C
:104E000089491360FFF738FB0123884A300053605B
:104E1000874B88491360FFF72FFB0123864C8022C4
:104E20006360864B002023600023A360E36023615E
:104E30006361A361E36123626362A362E36223634C
:104E40006363A363E36323646364A364E36423652C
:104E50006365A365E36523666366A366E36623670C
:104E60006367A367A3500432A3500432A3500432F3
:104E7000A3500432A3500432A3500432A35004328E
:104E8000A3500432A3500432A3500432A35004327E
:104E9000A3500432A3500432A35022000021B832A0
:104EA00010605160C022A3500432A354E367644BE6
:104EB00021001800C33A019321F05AF8614B3000E9
:104EC0001900019A0793FFF7D7FA01235E4A3000D1
:104ED00053605E4B5E491360FFF7CEFA01235D4AD3
:104EE000300053605C4B5D491360FFF7C5FA5C4BC3
:104EF00001211800019313F0CDFC30005949019AAB
:104F0000FFF7BAFA0123584A30005360574B58490B
:104F10001360FFF7B1FA0123564A30005360564B35
:104F200056491360FFF7A8FA0123554A3000536031
:104F3000544B55491360FFF79FFA0123534A300041
:104F40005360534B53491360FFF796FA52460B9246
:104F50004A460C925A460D924246009B30000AA9DE
:104F60000A930E920F9701F087FDF268099801925B
:104F7000FFF78EFC009B019A80008350F368059830
:104F80000093FFF785FC5246009B8000C250F368F7
:104F900008989A46FFF77CFC4A4653468000C25068
:104FA000F36802989946FFF773FC4B468000C550A2
:104FB0000698F568FFF76CFC5B4680004351039848
:104FC000F568FFF765FC4346800043510498F56897
:104FD000FFF75EFC800047510798F568FFF758FC23
:104FE00080004451300011B0F0BCBB46B246A94627
:104FF000A046F0BD06000D0001350FD130002AF0AB
:10500000C5F9060020000D00FFF75CF9F4E7F8E7AA
:10501000F7E7F6E7F5E7F4E7F3E7F2E72AF0AAF8AF
:105020008428002008EC0410143600209428002066
:1050300020EC04101C3600201825002024FE04104B
:10504000B0280020143500205428002038EC04102B
:105050000C3600206428002024FF04107036002045
:1050600024280020FC3500206C28002040CE0410AD
:105070002C3600207428002098CE041024360020FE
:1050800008290020F0CE0410283600201029002026
:1050900048CF041020360020F8B50023144E0360DA
:1050A00033680400002B15D0124D2A6822609A4202
:1050B0000AD0114E30002AF08FFE002806D12B684E
:1050C0001A68236001321A602000F8BD30002AF00F
:1050D0009FFEF4E7094F02213800FFF7E7FB054D7B
:1050E0003900074837602F60FFF700F93368DCE7C5
:1050F000D0350020DC35002000280020C428002006
:105100000432002070B504008068002828D02E23C7
:105110002C224374A3681F4D9A740023A0681E4A72
:10512000C360836103628362C36282604261C26161
:105130004262290004223030FDF71CFAA0680422E4
:1051400029003430FDF716FA0022144B1868A368C2
:10515000815C9B183833013219700B2AF7D170BD6E
:105160004430FDF70DFA0E4B00220360002343602C
:105170008360C360038243618361C36103624362EE
:105180008362C3620363436343338274A060C25487
:10519000BDE7C0461C030510F8A80410A8120020A3
:1051A000B0CB041070B504008068002828D02E23EE
:1051B0002C224374A3681F4D9A740023A0681E4AD2
:1051C000C360836103628362C36282604261C261C1
:1051D0004262290004223030FDF7CCF9A068042295
:1051E00029003430FDF7C6F90022144B1868A36873
:1051F000815C9B183833013219700B2AF7D170BDCE
:105200004430FDF7BDF90E4B0022036000234360DC
:105210008360C360038243618361C361036243624D
:105220008362C3620363436343338274A060C254E6
:10523000BDE7C0461C030510F8A80410A812002002
:10524000C0CB0410094B10B504000360806800282F
:1052500002D003685B6898472000FFF733F820000E
:1052600010BD2000FFF72EF829F084FF30DE041077
:105270000D4B10B5040003608068002802D003685D
:105280005B6898472000FFF71DF82000FDF780F9C4
:10529000200010BD2000FFF715F82000FDF778F979
:1052A00029F068FFF9E7C04630DE0410094B10B55D
:1052B000040003608068002802D003685B68984798
:1052C0002000FEF7FFFF200010BD2000FEF7FAFFD0
:1052D00029F050FF64DE04100D4B10B5040003608C
:1052E0008068002802D003685B6898472000FEF7BA
:1052F000E9FF2000FDF74CF9200010BD2000FEF76B
:10530000E1FF2000FDF744F929F034FFF9E7C0463A
:1053100064DE041070B504008068002827D02E23B6
:105320004361023B83611E4B1E4A836000231E4D76
:10533000C3600362836203634363C2614262C26209
:10534000290004223830FDF715F9A068042229004D
:105350003C30FDF70FF9A068144B1A6803006C305D
:1053600040331178013202C38342FAD170BD7030EC
:10537000FDF706F90E4A002302606C224360836049
:10538000C360037443618361C361036243628362E8
:10539000C362036343638363C363A0608354BEE754
:1053A000F8A8041080CA04101C030510A8120020DD
:1053B000D0CB041070B504008068002827D02E23BD
:1053C0004361023B83611E4B1E4A836000231E4DD6
:1053D000C3600362836203634363C2614262C26269
:1053E000290004223830FDF7C5F8A06804222900FE
:1053F0003C30FDF7BFF8A068144B1A6803006C300E
:1054000040331178013202C38342FAD170BD70304B
:10541000FDF7B6F80E4A002302606C2243608360F9
:10542000C360037443618361C36103624362836247
:10543000C362036343638363C363A0608354BEE7B3
:10544000F8A8041080CA04101C030510A81200203C
:10545000E0CB0410094B10B50400036080680028FD
:1054600002D003685B6898472000FEF72BFF2000FE
:1054700010BD2000FEF726FF29F07CFE84EB04100F
:105480000D4B10B5040003608068002802D003684B
:105490005B6898472000FEF715FF2000FDF778F8BD
:1054A000200010BD2000FEF70DFF2000FDF770F872
:1054B00029F060FEF9E7C04684EB0410094B10B5F3
:1054C000040003608068002802D003685B68984786
:1054D0002000FEF7F7FE200010BD2000FEF7F2FED0
:1054E00029F048FEB8EB04100D4B10B50400036022
:1054F0008068002802D003685B6898472000FEF7A8
:10550000E1FE2000FDF744F8200010BD2000FEF76A
:10551000D9FE2000FDF73CF829F02CFEF9E7C04643
:10552000B8EB0410104B10B503604323C35C0400B8
:10553000002B13D08068002801D0FDF72DF860699A
:10554000002801D0FDF728F8E069002801D0FDF718
:1055500023F8606A002801D0FDF71EF82000FEF74E
:10556000B1FE200010BDC046B0CB041010B5040041
:10557000FFF7D8FF2000FDF70BF8200010BD20003A
:10558000FDF706F829F0F6FD104B10B50360432334
:10559000C35C0400002B13D08068002801D0FCF706
:1055A000FBFF6069002801D0FCF7F6FFE0690028E6
:1055B00001D0FCF7F1FF606A002801D0FCF7ECFF96
:1055C0002000FEF77FFE200010BDC046C0CB0410B7
:1055D00010B50400FFF7D8FF2000FCF7D9FF20002A
:1055E00010BD2000FCF7D4FF29F0C4FD104B10B50E
:1055F00003606C23C35C0400002B13D08068002878
:1056000001D0FCF7C9FFE069002801D0FCF7C4FF16
:10561000606A002801D0FCF7BFFFE06A002801D0D3
:10562000FCF7BAFF2000FEF74DFE200010BDC0467B
:10563000D0CB041010B50400FFF7D8FF2000FCF712
:10564000A7FF200010BD2000FCF7A2FF29F092FD6B
:10565000104B10B503606C23C35C0400002B13D007
:105660008068002801D0FCF797FFE069002801D08E
:10567000FCF792FF606A002801D0FCF78DFFE06A1A
:10568000002801D0FCF788FF2000FEF71BFE200059
:1056900010BDC046E0CB041010B50400FFF7D8FFE2
:1056A0002000FCF775FF200010BD2000FCF770FF04
:1056B00029F060FD70B504008068002828D02E23F2
:1056C0002C224374A3681F4D9A740023A0681E4ABD
:1056D000C360836103628362C36282604261C261AC
:1056E0004262290004223030FCF744FFA068042203
:1056F00029003430FCF73EFF0022144B1868A368E1
:10570000815C9B183833013219700B2AF7D170BDB8
:105710004430FCF735FF0E4B00220360002343604A
:105720008360C360038243618361C3610362436238
:105730008362C3620363436343338274A060C254D1
:10574000BDE7C0461C030510F8A80410A8120020ED
:10575000B0CB041070B504008068002828D02E2338
:105760002C224374A3681F4D9A740023A0681E4A1C
:10577000C360836103628362C36282604261C2610B
:105780004262290004223030FCF7F4FEA0680422B3
:1057900029003430FCF7EEFE0022144B1868A36891
:1057A000815C9B183833013219700B2AF7D170BD18
:1057B0004430FCF7E5FE0E4B0022036000234360FB
:1057C0008360C360038243618361C3610362436298
:1057D0008362C3620363436343338274A060C25431
:1057E000BDE7C0461C030510F8A80410A81200204D
:1057F000C0CB041070B5104B856804000360002D09
:105800000AD02B680D4A5B682800934209D1FFF744
:1058100089FE2800FCF7BCFE2000FEF753FD2000A7
:1058200070BD9847F8E702E02800FCF7B1FE2000C1
:10583000FEF748FD29F09EFCE8F404106D550010B9
:1058400010B50400FFF7D6FF2000FCF7A1FE2000F2
:1058500010BD2000FCF79CFE29F08CFC70B5104BAD
:10586000856804000360002D0AD02B680D4A5B6830
:105870002800934209D1FFF787FE2800FCF788FE35
:105880002000FEF71FFD200070BD9847F8E702E0FA
:105890002800FCF77DFE2000FEF714FD29F06AFCCD
:1058A0001CF50410D155001010B50400FFF7D6FF09
:1058B0002000FCF76DFE200010BD2000FCF768FE04
:1058C00029F058FC70B504008068002827D02E23EA
:1058D0004361023B83611E4B1E4A836000231E4DC1
:1058E000C3600362836203634363C2614262C26254
:1058F000290004223830FCF73DFEA068042229006C
:105900003C30FCF737FEA068144B1A6803006C307B
:1059100040331178013202C38342FAD170BD703036
:10592000FCF72EFE0E4A002302606C224360836067
:10593000C360037443618361C36103624362836232
:10594000C362036343638363C363A0608354BEE79E
:10595000F8A8041080CA04101C030510A812002027
:10596000D0CB041070B504008068002827D02E2307
:105970004361023B83611E4B1E4A836000231E4D20
:10598000C3600362836203634363C2614262C262B3
:10599000290004223830FCF7EDFDA068042229001C
:1059A0003C30FCF7E7FDA068144B1A6803006C302C
:1059B00040331178013202C38342FAD170BD703096
:1059C000FCF7DEFD0E4A002302606C224360836018
:1059D000C360037443618361C36103624362836292
:1059E000C362036343638363C363A0608354BEE7FE
:1059F000F8A8041080CA04101C030510A812002087
:105A0000E0CB041070B5104B856804000360002DD6
:105A10000AD02B680D4A5B682800934209D1FFF732
:105A2000E5FD2800FCF7B4FD2000FEF74BFC20004C
:105A300070BD9847F8E702E02800FCF7A9FD2000B8
:105A4000FEF740FC29F096FB44FE0410355600108A
:105A500010B50400FFF7D6FF2000FCF799FD2000E9
:105A600010BD2000FCF794FD29F084FB70B5104BAD
:105A7000856804000360002D0AD02B680D4A5B681E
:105A80002800934209D1FFF7E3FD2800FCF780FDD1
:105A90002000FEF717FC200070BD9847F8E702E0F1
:105AA0002800FCF775FD2000FEF70CFC29F062FBD6
:105AB00078FE04109956001010B50400FFF7D6FFC9
:105AC0002000FCF765FD200010BD2000FCF760FD04
:105AD00029F050FB10B50400806800282BD0204B23
